{"abi":[{"type":"constructor","inputs":[{"name":"_poolManager","type":"address","internalType":"contract IPoolManager"},{"name":"_daoToken","type":"address","internalType":"address"},{"name":"_daoTreasury","type":"address","internalType":"address"},{"name":"_maxBuybackDuration","type":"uint256","internalType":"uint256"},{"name":"_owner","type":"address","internalType":"address"}],"stateMutability":"nonpayable"},{"type":"function","name":"afterAddLiquidity","inputs":[{"name":"","type":"address","internalType":"address"},{"name":"","type":"tuple","internalType":"struct PoolKey","components":[{"name":"currency0","type":"address","internalType":"Currency"},{"name":"currency1","type":"address","internalType":"Currency"},{"name":"fee","type":"uint24","internalType":"uint24"},{"name":"tickSpacing","type":"int24","internalType":"int24"},{"name":"hooks","type":"address","internalType":"contract IHooks"}]},{"name":"","type":"tuple","internalType":"struct IPoolManager.ModifyLiquidityParams","components":[{"name":"tickLower","type":"int24","internalType":"int24"},{"name":"tickUpper","type":"int24","internalType":"int24"},{"name":"liquidityDelta","type":"int256","internalType":"int256"},{"name":"salt","type":"bytes32","internalType":"bytes32"}]},{"name":"","type":"int256","internalType":"BalanceDelta"},{"name":"","type":"bytes","internalType":"bytes"}],"outputs":[{"name":"","type":"bytes4","internalType":"bytes4"},{"name":"","type":"int256","internalType":"BalanceDelta"}],"stateMutability":"nonpayable"},{"type":"function","name":"afterDonate","inputs":[{"name":"","type":"address","internalType":"address"},{"name":"","type":"tuple","internalType":"struct PoolKey","components":[{"name":"currency0","type":"address","internalType":"Currency"},{"name":"currency1","type":"address","internalType":"Currency"},{"name":"fee","type":"uint24","internalType":"uint24"},{"name":"tickSpacing","type":"int24","internalType":"int24"},{"name":"hooks","type":"address","internalType":"contract IHooks"}]},{"name":"","type":"uint256","internalType":"uint256"},{"name":"","type":"uint256","internalType":"uint256"},{"name":"","type":"bytes","internalType":"bytes"}],"outputs":[{"name":"","type":"bytes4","internalType":"bytes4"}],"stateMutability":"nonpayable"},{"type":"function","name":"afterInitialize","inputs":[{"name":"","type":"address","internalType":"address"},{"name":"","type":"tuple","internalType":"struct PoolKey","components":[{"name":"currency0","type":"address","internalType":"Currency"},{"name":"currency1","type":"address","internalType":"Currency"},{"name":"fee","type":"uint24","internalType":"uint24"},{"name":"tickSpacing","type":"int24","internalType":"int24"},{"name":"hooks","type":"address","internalType":"contract IHooks"}]},{"name":"","type":"uint160","internalType":"uint160"},{"name":"","type":"int24","internalType":"int24"},{"name":"","type":"bytes","internalType":"bytes"}],"outputs":[{"name":"","type":"bytes4","internalType":"bytes4"}],"stateMutability":"nonpayable"},{"type":"function","name":"afterRemoveLiquidity","inputs":[{"name":"","type":"address","internalType":"address"},{"name":"","type":"tuple","internalType":"struct PoolKey","components":[{"name":"currency0","type":"address","internalType":"Currency"},{"name":"currency1","type":"address","internalType":"Currency"},{"name":"fee","type":"uint24","internalType":"uint24"},{"name":"tickSpacing","type":"int24","internalType":"int24"},{"name":"hooks","type":"address","internalType":"contract IHooks"}]},{"name":"","type":"tuple","internalType":"struct IPoolManager.ModifyLiquidityParams","components":[{"name":"tickLower","type":"int24","internalType":"int24"},{"name":"tickUpper","type":"int24","internalType":"int24"},{"name":"liquidityDelta","type":"int256","internalType":"int256"},{"name":"salt","type":"bytes32","internalType":"bytes32"}]},{"name":"","type":"int256","internalType":"BalanceDelta"},{"name":"","type":"bytes","internalType":"bytes"}],"outputs":[{"name":"","type":"bytes4","internalType":"bytes4"},{"name":"","type":"int256","internalType":"BalanceDelta"}],"stateMutability":"nonpayable"},{"type":"function","name":"afterSwap","inputs":[{"name":"","type":"address","internalType":"address"},{"name":"","type":"tuple","internalType":"struct PoolKey","components":[{"name":"currency0","type":"address","internalType":"Currency"},{"name":"currency1","type":"address","internalType":"Currency"},{"name":"fee","type":"uint24","internalType":"uint24"},{"name":"tickSpacing","type":"int24","internalType":"int24"},{"name":"hooks","type":"address","internalType":"contract IHooks"}]},{"name":"","type":"tuple","internalType":"struct IPoolManager.SwapParams","components":[{"name":"zeroForOne","type":"bool","internalType":"bool"},{"name":"amountSpecified","type":"int256","internalType":"int256"},{"name":"sqrtPriceLimitX96","type":"uint160","internalType":"uint160"}]},{"name":"","type":"int256","internalType":"BalanceDelta"},{"name":"","type":"bytes","internalType":"bytes"}],"outputs":[{"name":"","type":"bytes4","internalType":"bytes4"},{"name":"","type":"int128","internalType":"int128"}],"stateMutability":"nonpayable"},{"type":"function","name":"beforeAddLiquidity","inputs":[{"name":"","type":"address","internalType":"address"},{"name":"","type":"tuple","internalType":"struct PoolKey","components":[{"name":"currency0","type":"address","internalType":"Currency"},{"name":"currency1","type":"address","internalType":"Currency"},{"name":"fee","type":"uint24","internalType":"uint24"},{"name":"tickSpacing","type":"int24","internalType":"int24"},{"name":"hooks","type":"address","internalType":"contract IHooks"}]},{"name":"","type":"tuple","internalType":"struct IPoolManager.ModifyLiquidityParams","components":[{"name":"tickLower","type":"int24","internalType":"int24"},{"name":"tickUpper","type":"int24","internalType":"int24"},{"name":"liquidityDelta","type":"int256","internalType":"int256"},{"name":"salt","type":"bytes32","internalType":"bytes32"}]},{"name":"","type":"bytes","internalType":"bytes"}],"outputs":[{"name":"","type":"bytes4","internalType":"bytes4"}],"stateMutability":"nonpayable"},{"type":"function","name":"beforeDonate","inputs":[{"name":"","type":"address","internalType":"address"},{"name":"","type":"tuple","internalType":"struct PoolKey","components":[{"name":"currency0","type":"address","internalType":"Currency"},{"name":"currency1","type":"address","internalType":"Currency"},{"name":"fee","type":"uint24","internalType":"uint24"},{"name":"tickSpacing","type":"int24","internalType":"int24"},{"name":"hooks","type":"address","internalType":"contract IHooks"}]},{"name":"","type":"uint256","internalType":"uint256"},{"name":"","type":"uint256","internalType":"uint256"},{"name":"","type":"bytes","internalType":"bytes"}],"outputs":[{"name":"","type":"bytes4","internalType":"bytes4"}],"stateMutability":"nonpayable"},{"type":"function","name":"beforeInitialize","inputs":[{"name":"","type":"address","internalType":"address"},{"name":"","type":"tuple","internalType":"struct PoolKey","components":[{"name":"currency0","type":"address","internalType":"Currency"},{"name":"currency1","type":"address","internalType":"Currency"},{"name":"fee","type":"uint24","internalType":"uint24"},{"name":"tickSpacing","type":"int24","internalType":"int24"},{"name":"hooks","type":"address","internalType":"contract IHooks"}]},{"name":"","type":"uint160","internalType":"uint160"},{"name":"","type":"bytes","internalType":"bytes"}],"outputs":[{"name":"","type":"bytes4","internalType":"bytes4"}],"stateMutability":"nonpayable"},{"type":"function","name":"beforeRemoveLiquidity","inputs":[{"name":"","type":"address","internalType":"address"},{"name":"","type":"tuple","internalType":"struct PoolKey","components":[{"name":"currency0","type":"address","internalType":"Currency"},{"name":"currency1","type":"address","internalType":"Currency"},{"name":"fee","type":"uint24","internalType":"uint24"},{"name":"tickSpacing","type":"int24","internalType":"int24"},{"name":"hooks","type":"address","internalType":"contract IHooks"}]},{"name":"","type":"tuple","internalType":"struct IPoolManager.ModifyLiquidityParams","components":[{"name":"tickLower","type":"int24","internalType":"int24"},{"name":"tickUpper","type":"int24","internalType":"int24"},{"name":"liquidityDelta","type":"int256","internalType":"int256"},{"name":"salt","type":"bytes32","internalType":"bytes32"}]},{"name":"","type":"bytes","internalType":"bytes"}],"outputs":[{"name":"","type":"bytes4","internalType":"bytes4"}],"stateMutability":"nonpayable"},{"type":"function","name":"beforeSwap","inputs":[{"name":"sender","type":"address","internalType":"address"},{"name":"key","type":"tuple","internalType":"struct PoolKey","components":[{"name":"currency0","type":"address","internalType":"Currency"},{"name":"currency1","type":"address","internalType":"Currency"},{"name":"fee","type":"uint24","internalType":"uint24"},{"name":"tickSpacing","type":"int24","internalType":"int24"},{"name":"hooks","type":"address","internalType":"contract IHooks"}]},{"name":"params","type":"tuple","internalType":"struct IPoolManager.SwapParams","components":[{"name":"zeroForOne","type":"bool","internalType":"bool"},{"name":"amountSpecified","type":"int256","internalType":"int256"},{"name":"sqrtPriceLimitX96","type":"uint160","internalType":"uint160"}]},{"name":"","type":"bytes","internalType":"bytes"}],"outputs":[{"name":"","type":"bytes4","internalType":"bytes4"},{"name":"","type":"int256","internalType":"BeforeSwapDelta"},{"name":"","type":"uint24","internalType":"uint24"}],"stateMutability":"nonpayable"},{"type":"function","name":"buybackAmounts","inputs":[{"name":"","type":"bytes32","internalType":"PoolId"}],"outputs":[{"name":"","type":"uint256","internalType":"uint256"}],"stateMutability":"view"},{"type":"function","name":"buybackOrders","inputs":[{"name":"poolId","type":"bytes32","internalType":"PoolId"}],"outputs":[{"name":"initiator","type":"address","internalType":"address"},{"name":"totalAmount","type":"uint256","internalType":"uint256"},{"name":"amountBought","type":"uint256","internalType":"uint256"},{"name":"startTime","type":"uint256","internalType":"uint256"},{"name":"endTime","type":"uint256","internalType":"uint256"},{"name":"lastExecutionTime","type":"uint256","internalType":"uint256"},{"name":"executionInterval","type":"uint256","internalType":"uint256"},{"name":"zeroForOne","type":"bool","internalType":"bool"},{"name":"totalIntervals","type":"uint256","internalType":"uint256"},{"name":"intervalsBought","type":"uint256","internalType":"uint256"}],"stateMutability":"view"},{"type":"function","name":"claimBoughtTokens","inputs":[{"name":"key","type":"tuple","internalType":"struct PoolKey","components":[{"name":"currency0","type":"address","internalType":"Currency"},{"name":"currency1","type":"address","internalType":"Currency"},{"name":"fee","type":"uint24","internalType":"uint24"},{"name":"tickSpacing","type":"int24","internalType":"int24"},{"name":"hooks","type":"address","internalType":"contract IHooks"}]}],"outputs":[],"stateMutability":"nonpayable"},{"type":"function","name":"claimTokensSupply","inputs":[{"name":"","type":"bytes32","internalType":"PoolId"}],"outputs":[{"name":"","type":"uint256","internalType":"uint256"}],"stateMutability":"view"},{"type":"function","name":"daoToken","inputs":[],"outputs":[{"name":"","type":"address","internalType":"address"}],"stateMutability":"view"},{"type":"function","name":"daoTreasury","inputs":[],"outputs":[{"name":"","type":"address","internalType":"address"}],"stateMutability":"view"},{"type":"function","name":"getBuybackOrderDetails","inputs":[{"name":"key","type":"tuple","internalType":"struct PoolKey","components":[{"name":"currency0","type":"address","internalType":"Currency"},{"name":"currency1","type":"address","internalType":"Currency"},{"name":"fee","type":"uint24","internalType":"uint24"},{"name":"tickSpacing","type":"int24","internalType":"int24"},{"name":"hooks","type":"address","internalType":"contract IHooks"}]}],"outputs":[{"name":"initiator","type":"address","internalType":"address"},{"name":"totalAmount","type":"uint256","internalType":"uint256"},{"name":"amountBought","type":"uint256","internalType":"uint256"},{"name":"startTime","type":"uint256","internalType":"uint256"},{"name":"endTime","type":"uint256","internalType":"uint256"},{"name":"lastExecutionTime","type":"uint256","internalType":"uint256"},{"name":"remainingTime","type":"uint256","internalType":"uint256"},{"name":"totalDuration","type":"uint256","internalType":"uint256"},{"name":"remainingAmount","type":"uint256","internalType":"uint256"}],"stateMutability":"view"},{"type":"function","name":"getBuybackProgress","inputs":[{"name":"key","type":"tuple","internalType":"struct PoolKey","components":[{"name":"currency0","type":"address","internalType":"Currency"},{"name":"currency1","type":"address","internalType":"Currency"},{"name":"fee","type":"uint24","internalType":"uint24"},{"name":"tickSpacing","type":"int24","internalType":"int24"},{"name":"hooks","type":"address","internalType":"contract IHooks"}]}],"outputs":[{"name":"percentComplete","type":"uint256","internalType":"uint256"}],"stateMutability":"view"},{"type":"function","name":"getHookPermissions","inputs":[],"outputs":[{"name":"","type":"tuple","internalType":"struct Hooks.Permissions","components":[{"name":"beforeInitialize","type":"bool","internalType":"bool"},{"name":"afterInitialize","type":"bool","internalType":"bool"},{"name":"beforeAddLiquidity","type":"bool","internalType":"bool"},{"name":"afterAddLiquidity","type":"bool","internalType":"bool"},{"name":"beforeRemoveLiquidity","type":"bool","internalType":"bool"},{"name":"afterRemoveLiquidity","type":"bool","internalType":"bool"},{"name":"beforeSwap","type":"bool","internalType":"bool"},{"name":"afterSwap","type":"bool","internalType":"bool"},{"name":"beforeDonate","type":"bool","internalType":"bool"},{"name":"afterDonate","type":"bool","internalType":"bool"},{"name":"beforeSwapReturnDelta","type":"bool","internalType":"bool"},{"name":"afterSwapReturnDelta","type":"bool","internalType":"bool"},{"name":"afterAddLiquidityReturnDelta","type":"bool","internalType":"bool"},{"name":"afterRemoveLiquidityReturnDelta","type":"bool","internalType":"bool"}]}],"stateMutability":"pure"},{"type":"function","name":"getTimeUntilNextExecution","inputs":[{"name":"key","type":"tuple","internalType":"struct PoolKey","components":[{"name":"currency0","type":"address","internalType":"Currency"},{"name":"currency1","type":"address","internalType":"Currency"},{"name":"fee","type":"uint24","internalType":"uint24"},{"name":"tickSpacing","type":"int24","internalType":"int24"},{"name":"hooks","type":"address","internalType":"contract IHooks"}]}],"outputs":[{"name":"","type":"uint256","internalType":"uint256"}],"stateMutability":"view"},{"type":"function","name":"initiateBuyback","inputs":[{"name":"key","type":"tuple","internalType":"struct PoolKey","components":[{"name":"currency0","type":"address","internalType":"Currency"},{"name":"currency1","type":"address","internalType":"Currency"},{"name":"fee","type":"uint24","internalType":"uint24"},{"name":"tickSpacing","type":"int24","internalType":"int24"},{"name":"hooks","type":"address","internalType":"contract IHooks"}]},{"name":"totalAmount","type":"uint256","internalType":"uint256"},{"name":"duration","type":"uint256","internalType":"uint256"},{"name":"executionInterval","type":"uint256","internalType":"uint256"},{"name":"zeroForOne","type":"bool","internalType":"bool"}],"outputs":[{"name":"","type":"tuple","internalType":"struct PoolKey","components":[{"name":"currency0","type":"address","internalType":"Currency"},{"name":"currency1","type":"address","internalType":"Currency"},{"name":"fee","type":"uint24","internalType":"uint24"},{"name":"tickSpacing","type":"int24","internalType":"int24"},{"name":"hooks","type":"address","internalType":"contract IHooks"}]}],"stateMutability":"nonpayable"},{"type":"function","name":"maxBuybackDuration","inputs":[],"outputs":[{"name":"","type":"uint256","internalType":"uint256"}],"stateMutability":"view"},{"type":"function","name":"message","inputs":[],"outputs":[{"name":"","type":"string","internalType":"string"}],"stateMutability":"view"},{"type":"function","name":"owner","inputs":[],"outputs":[{"name":"","type":"address","internalType":"address"}],"stateMutability":"view"},{"type":"function","name":"poolManager","inputs":[],"outputs":[{"name":"","type":"address","internalType":"contract IPoolManager"}],"stateMutability":"view"},{"type":"function","name":"renounceOwnership","inputs":[],"outputs":[],"stateMutability":"nonpayable"},{"type":"function","name":"setDaoTreasury","inputs":[{"name":"_newTreasury","type":"address","internalType":"address"}],"outputs":[],"stateMutability":"nonpayable"},{"type":"function","name":"setMaxBuybackDuration","inputs":[{"name":"_newMaxDuration","type":"uint256","internalType":"uint256"}],"outputs":[],"stateMutability":"nonpayable"},{"type":"function","name":"transferOwnership","inputs":[{"name":"newOwner","type":"address","internalType":"address"}],"outputs":[],"stateMutability":"nonpayable"},{"type":"function","name":"unlockCallback","inputs":[{"name":"data","type":"bytes","internalType":"bytes"}],"outputs":[{"name":"","type":"bytes","internalType":"bytes"}],"stateMutability":"nonpayable"},{"type":"function","name":"updateBuybackOrder","inputs":[{"name":"key","type":"tuple","internalType":"struct PoolKey","components":[{"name":"currency0","type":"address","internalType":"Currency"},{"name":"currency1","type":"address","internalType":"Currency"},{"name":"fee","type":"uint24","internalType":"uint24"},{"name":"tickSpacing","type":"int24","internalType":"int24"},{"name":"hooks","type":"address","internalType":"contract IHooks"}]},{"name":"newTotalAmount","type":"uint256","internalType":"uint256"},{"name":"newEndTime","type":"uint256","internalType":"uint256"}],"outputs":[],"stateMutability":"nonpayable"},{"type":"function","name":"updateMessage","inputs":[],"outputs":[],"stateMutability":"nonpayable"},{"type":"event","name":"BuybackCancelled","inputs":[{"name":"poolId","type":"bytes32","indexed":false,"internalType":"PoolId"}],"anonymous":false},{"type":"event","name":"BuybackInitiated","inputs":[{"name":"poolId","type":"bytes32","indexed":false,"internalType":"PoolId"},{"name":"totalAmount","type":"uint256","indexed":false,"internalType":"uint256"},{"name":"duration","type":"uint256","indexed":false,"internalType":"uint256"}],"anonymous":false},{"type":"event","name":"BuybackOrderUpdated","inputs":[{"name":"poolId","type":"bytes32","indexed":false,"internalType":"PoolId"},{"name":"newTotalAmount","type":"uint256","indexed":false,"internalType":"uint256"},{"name":"newDuration","type":"uint256","indexed":false,"internalType":"uint256"},{"name":"executionInterval","type":"uint256","indexed":false,"internalType":"uint256"}],"anonymous":false},{"type":"event","name":"OwnershipTransferred","inputs":[{"name":"previousOwner","type":"address","indexed":true,"internalType":"address"},{"name":"newOwner","type":"address","indexed":true,"internalType":"address"}],"anonymous":false},{"type":"error","name":"DurationExceedsMaximum","inputs":[]},{"type":"error","name":"EndTimeIsInPast","inputs":[]},{"type":"error","name":"ExistingBuybackInProgress","inputs":[]},{"type":"error","name":"HookNotImplemented","inputs":[]},{"type":"error","name":"IntervalDoesNotDivideDuration","inputs":[]},{"type":"error","name":"InvalidPool","inputs":[]},{"type":"error","name":"LockFailure","inputs":[]},{"type":"error","name":"NoTokensToClaim","inputs":[]},{"type":"error","name":"NotPoolManager","inputs":[]},{"type":"error","name":"NotSelf","inputs":[]},{"type":"error","name":"OnlyInitiatorCanClaim","inputs":[]},{"type":"error","name":"OwnableInvalidOwner","inputs":[{"name":"owner","type":"address","internalType":"address"}]},{"type":"error","name":"OwnableUnauthorizedAccount","inputs":[{"name":"account","type":"address","internalType":"address"}]},{"type":"error","name":"UnauthorizedCaller","inputs":[]}],"bytecode":{"object":"0x60c06040523461033257604051601f61261138819003918201601f19168301916001600160401b038311848410176103365780849260a094604052833981010312610332578051906001600160a01b0382168203610332576100636020820161036a565b916100706040830161036a565b9061008260806060850151940161036a565b906080525f6101a061009261034a565b8281528260208201528260408201528260608201528260808201528260a08201528260c08201528260e0820152826101008201528261012082015282610140820152826101608201528261018082015201525f6101a06100f061034a565b8281528260208201528260408201528260608201528260808201528260a0820152600160c08201528260e082015282610100820152826101208201528261014082015282610160820152826101808201520152612000301615801590610325575b8015610318575b801561030b575b80156102fe575b80156102f1575b80156102e1575b80156102d5575b80156102c9575b80156102bd575b80156102b1575b80156102a5575b8015610299575b801561028d575b61027a576001600160a01b0316928315610267575f80546001600160a01b031981168617825560405195916001600160a01b03909116907f8be0079c531659141344cd1fd0a4f28419497f9722a3daafe3b4186f6b6457e09080a360a052600580546001600160a01b0319166001600160a01b0392909216919091179055600655612292908161037f823960805181818161078601528181610ba301528181611a3601528181611e260152612014015260a05181818161104f01526113340152f35b631e4fbdf760e01b5f525f60045260245ffd5b630732d7b560e51b5f523060045260245ffd5b506001301615156101a5565b5060023016151561019e565b50600430161515610197565b50600830161515610190565b50601030161515610189565b50602030161515610182565b5060403016151561017b565b5060803016151560011415610174565b506101003016151561016d565b5061020030161515610166565b506104003016151561015f565b5061080030161515610158565b5061100030161515610151565b5f80fd5b634e487b7160e01b5f52604160045260245ffd5b604051906101c082016001600160401b0381118382101761033657604052565b51906001600160a01b03821682036103325756fe6080806040526004361015610012575f80fd5b5f905f3560e01c9081630416b7aa146113f5575080631df42f60146113d857806321d0ee70146113d3578063259982e5146113d357806329399ce0146113b25780633440d820146113635780634914b0301461131f578063575e24b41461129b5780635a2a810014610bed5780635bc8030614611280578063640d85c614611165578063650351ed14611142578063715018a6146110eb57806379022a9f146110c35780637ec366f914610ef65780638aec2b6f14610c195780638da5cb5b14610bf25780638db2b65214610bed57806391dd734614610b70578063a124df5d14610b2d578063a910f80f14610ac3578063b3cbb30914610a1d578063b47b2fb1146109b9578063b6a8b0fa1461076b578063c13076091461091d578063c4e833ce146107b5578063dc4c90d314610770578063e1b4af691461076b578063e21f37ce14610684578063ee6c82be14610232578063ef6c6482146102085763f2fde38b1461017e575f80fd5b346102055760203660031901126102055761019761141b565b61019f611dc0565b6001600160a01b031680156101f1575f80546001600160a01b03198116831782556001600160a01b0316907f8be0079c531659141344cd1fd0a4f28419497f9722a3daafe3b4186f6b6457e09080a380f35b631e4fbdf760e01b82526004829052602482fd5b80fd5b50346102055760203660031901126102055760406020916004358152600383522054604051908152f35b503461020557366003190161012081126106805760a0136102055760a43560c4359060e435926101043580151580820361067c5782608060405161027581611661565b8281528260208201528260408201528260608201520152610294611dc0565b61029e86866117ea565b61066d57600654851161065e57600960a06102b83661169d565b2080976102c588426117f4565b936102d0828a6117b9565b91604051956102de87611615565b33875260208701908a8252604088018a8152606089019042825260808a0192835260a08a019342855260c08b0195865260e08b019687526101008b019788526101208b01988d8a528d52600260205260408d209a60018060a01b039060018060a01b03905116166bffffffffffffffffffffffff60a01b8c5416178b555160018b01555160028a0155516003890155516004880155516005870155516006860155600785019051151560ff801983541691161790555160088401555191015584825260036020528260408320555f146104f0576103d26001600160a01b036103c4611817565b166103cd611d76565b61220d565b6001600160a01b036103e2611817565b6040516323b872dd60e01b8152336004820152306024820152604481018590529291602091849160649183918691165af19081156104e4575091606093917fb0bb155be612ba26e18f696c2692b5efddc14a589edcd1dc50a6c6f97a29783f95936104b5575b505b60405192835260208301526040820152a160a06104663661169d565b60405190600180841b038151168252600180841b03602082015116602083015262ffffff6040820151166040830152606081015160020b60608301526080600180851b03910151166080820152f35b6104d69060203d6020116104dd575b6104ce818361167c565b810190611d5e565b505f610448565b503d6104c4565b604051903d90823e3d90fd5b6105036001600160a01b036103c4611801565b602460206001600160a01b03610517611801565b16604051928380926370a0823160e01b82523360048301525afa801561065357829061061b575b610580915060405161055160408261167c565b602081527f62616c616e6365206f66206d73672e73656e646572206f6620746f6b656e20316020820152612138565b6001600160a01b03610590611801565b6040516323b872dd60e01b8152336004820152306024820152604481018590529291602091849160649183918691165af19081156104e4575091606093917fb0bb155be612ba26e18f696c2692b5efddc14a589edcd1dc50a6c6f97a29783f95936105fc575b5061044a565b6106149060203d6020116104dd576104ce818361167c565b505f6105f6565b506020813d60201161064b575b816106356020938361167c565b8101031261064757610580905161053e565b5f80fd5b3d9150610628565b6040513d84823e3d90fd5b630881479360e41b8352600483fd5b63206cfa3760e01b8352600483fd5b8280fd5b5080fd5b50346102055780600319360112610205576040519080600154906106a7826115dd565b808552916001811690811561074457506001146106e7575b6106e3846106cf8186038261167c565b604051918291602083526020830190611557565b0390f35b600181527fb10e2d527612073b26eecdfd717e6a320cf44b4afac2b0732d9fcbe2b7fa0cf6939250905b80821061072a575090915081016020016106cf826106bf565b919260018160209254838588010152019101909291610711565b60ff191660208087019190915292151560051b850190920192506106cf91508390506106bf565b61158b565b50346102055780600319360112610205576040517f00000000000000000000000000000000000000000000000000000000000000006001600160a01b03168152602090f35b5034610205578060031936011261020557806101c0916101a06040516107da81611645565b8281528260208201528260408201528260608201528260808201528260a08201528260c08201528260e0820152826101008201528261012082015282610140820152826101608201528261018082015201526040519061083982611645565b808252602082019181835260408101828152606082018381526080830184815260a0840185815260c085016001815260e08601908782526101008701928884526101208801948986526101408901968a88526101608a01988b8a526101a06101808c019b8d8d52019b808d5260206040519e8f92835251151591015251151560408d015251151560608c015251151560808b015251151560a08a015251151560c089015251151560e08801525115156101008701525115156101208601525115156101408501525115156101608401525115156101808301525115156101a0820152f35b503461020557602036600319011261020557604061014091600435815260026020522060018060a01b038154169060018101549060028101546003820154600483015460058401549060068501549260ff600787015416946009600888015497015497604051998a5260208a015260408901526060880152608087015260a086015260c0850152151560e0840152610100830152610120820152f35b503461020557610160366003190112610205576109d461141b565b5060a03660231901126102055760603660c319011261020557610144356001600160401b0381116106805790610a0f60049236908401611445565b5050630a85dc2960e01b8152fd5b34610647575f366003190112610647576020604051610a3d60408261167c565b600b8152016a1a195b1b1bc81ddbdc9b1960aa1b8152610a5e6001546115dd565b601f8111610a7b575b81516001600160a81b031916601617600155005b60015f52601f7fb10e2d527612073b26eecdfd717e6a320cf44b4afac2b0732d9fcbe2b7fa0cf6910160051c8101905b818110610ab85750610a67565b5f8155600101610aab565b346106475761012036600319011261064757610add61141b565b5060a036602319011261064757610af26114e3565b50610afb61157b565b50610104356001600160401b03811161064757610b1c903690600401611445565b5050630a85dc2960e01b5f5260045ffd5b3461064757602036600319011261064757610b4661141b565b610b4e611dc0565b600580546001600160a01b0319166001600160a01b0392909216919091179055005b34610647576020366003190112610647576004356001600160401b03811161064757610ba0903690600401611445565b907f00000000000000000000000000000000000000000000000000000000000000006001600160a01b03163303610bde576106e3916106cf9161218f565b63570c108560e11b5f5260045ffd5b6114f9565b34610647575f366003190112610647575f546040516001600160a01b039091168152602090f35b3461064757366003190160e081126106475760a0136106475760c43560a435428210610ee75760a0610c4a3661169d565b2090815f52600260205260405f209260018060a01b038454163303610ed857610c7381426117f4565b60065410610ec957600184019384549460028201958654610c948183611798565b508510610e5e57808511610d08575b7ff227b1880cc88034735ffedb557bdafaca068ed7e882da00cb2e85124b4c2ef16080878787600688610ce08e858b558460048401555485611798565b855f52600360205260405f2055015491604051938452602084015260408301526060820152a1005b916020610d198695945f9897611798565b60ff6007840154168814610de857610d70906001600160a01b03610d3b611817565b6040516323b872dd60e01b8152336004820152306024820152604481019390935291998a939190921691839182906064820190565b03925af1958615610ddd577ff227b1880cc88034735ffedb557bdafaca068ed7e882da00cb2e85124b4c2ef19785600694610ce09360809a610dbe575b505b94505097505091929394610ca3565b610dd69060203d6020116104dd576104ce818361167c565b508b610dad565b6040513d5f823e3d90fd5b610dfc906001600160a01b03610d3b611801565b03925af1958615610ddd577ff227b1880cc88034735ffedb557bdafaca068ed7e882da00cb2e85124b4c2ef19785600694610ce09360809a610e3f575b50610daf565b610e579060203d6020116104dd576104ce818361167c565b508b610e39565b60405162461bcd60e51b815260206004820152603b60248201527f4e657720746f74616c20616d6f756e74206d757374206265206772656174657260448201527f207468616e20616d6f756e7420616c726561647920626f7567687400000000006064820152608490fd5b630881479360e41b5f5260045ffd5b635c427cd960e01b5f5260045ffd5b63b707b66960e01b5f5260045ffd5b346106475760a03660031901126106475760a0610f123661169d565b205f81815260026020526040902080546001600160a01b031633036110b4576002810191825492600183015484146110a5578315611097575f9055600960405191610f5c83611615565b5f8352602083015f8152604084015f8152606085015f8152608086015f815260a08701905f825260c08801925f845260e08901945f86526101008a01965f88526101208b01985f8a525f52600260205260405f209a60018060a01b039060018060a01b03905116166bffffffffffffffffffffffff60a01b8c5416178b555160018b01555160028a0155516003890155516004880155516005870155516006860155600785019051151560ff801983541691161790555160088401555191015560018060a01b03905416906040519163a9059cbb60e01b8352600483015260248201526020816044815f60018060a01b037f0000000000000000000000000000000000000000000000000000000000000000165af18015610ddd5761107d57005b6110959060203d6020116104dd576104ce818361167c565b005b62f3f86160e41b5f5260045ffd5b633a17d92760e21b5f5260045ffd5b6311577dc360e21b5f5260045ffd5b34610647575f366003190112610647576005546040516001600160a01b039091168152602090f35b34610647575f36600319011261064757611103611dc0565b5f80546001600160a01b0319811682556001600160a01b03167f8be0079c531659141344cd1fd0a4f28419497f9722a3daafe3b4186f6b6457e08280a3005b346106475760a036600319011261064757602061115d611c55565b604051908152f35b346106475760a03660031901126106475760a06111813661169d565b205f52600260205261012060405f2060405161119c81611615565b60018060a01b0382541691828252600181015491602081019183835260028101546040830190808252600383015490611247606086019383855261123d6004870154956080890198878a528d600960058b01549a8b60a0850152600681015460c085015260ff600782015416151560e0850152600881015461010085015201549101524287115f14611279576112324288611798565b985b51905190611798565b9751905190611798565b96604051988952602089015260408801526060870152608086015260a085015260c084015260e0830152610100820152f35b5f98611234565b346106475760a036600319011261064757602061115d611bc3565b3461064757610140366003190112610647576112b561141b565b60a03660231901126106475760603660c31901126106475761012435906001600160401b038211610647576112ff62ffffff916112f86060943690600401611445565b505061184d565b906040939293519363ffffffff60e01b1684526020840152166040820152f35b34610647575f366003190112610647576040517f00000000000000000000000000000000000000000000000000000000000000006001600160a01b03168152602090f35b34610647576101003660031901126106475761137d61141b565b5060a0366023190112610647576113926114e3565b5060e4356001600160401b03811161064757610b1c903690600401611445565b34610647576020366003190112610647576113cb611dc0565b600435600655005b611472565b34610647575f366003190112610647576020600654604051908152f35b34610647576020366003190112610647576020906004355f526004825260405f20548152f35b600435906001600160a01b038216820361064757565b35906001600160a01b038216820361064757565b9181601f84011215610647578235916001600160401b038311610647576020838186019501011161064757565b3461064757610160366003190112610647576004356001600160a01b0381168103610647575060a03660231901126106475760803660c319011261064757610144356001600160401b038111610647576114d0903690600401611445565b5050630a85dc2960e01b5f908152600490fd5b60c435906001600160a01b038216820361064757565b3461064757610180366003190112610647576004356001600160a01b0381168103610647575060a03660231901126106475760803660c319011261064757610164356001600160401b038111610647576114d0903690600401611445565b805180835260209291819084018484015e5f828201840152601f01601f1916010190565b60e435908160020b820361064757565b3461064757610120366003190112610647576004356001600160a01b0381168103610647575060a036602319011261064757610104356001600160401b038111610647576114d0903690600401611445565b90600182811c9216801561160b575b60208310146115f757565b634e487b7160e01b5f52602260045260245ffd5b91607f16916115ec565b61014081019081106001600160401b0382111761163157604052565b634e487b7160e01b5f52604160045260245ffd5b6101c081019081106001600160401b0382111761163157604052565b60a081019081106001600160401b0382111761163157604052565b90601f801991011681019081106001600160401b0382111761163157604052565b60a090600319011261064757604051906116b682611661565b816004356001600160a01b03811681036106475781526024356001600160a01b038116810361064757602082015260443562ffffff811681036106475760408201526064358060020b8103610647576060820152608435906001600160a01b03821682036106475760800152565b91908260a09103126106475760405161173c81611661565b809261174781611431565b825261175560208201611431565b6020830152604081013562ffffff811681036106475760408301526060810135908160020b8203610647576080611793918193606086015201611431565b910152565b919082039182116117a557565b634e487b7160e01b5f52601160045260245ffd5b81156117c3570490565b634e487b7160e01b5f52601260045260245ffd5b818102929181159184041417156117a557565b81156117c3570690565b919082018092116117a557565b6024356001600160a01b03811681036106475790565b6004356001600160a01b03811681036106475790565b600f0b6f7fffffffffffffffffffffffffffffff1981146117a5575f0390565b6001600160a01b03163014611bb45760a0611869366024611724565b205f52600260205260405f20600181015480151580611ba7575b611899575b506315d7892d60e21b915f91508190565b6118c490600583016118ea6118af825442611798565b926118e56118cc6006880154968780976117b9565b9586936117d7565b6118df600489015460038a015490611798565b906117b9565b6117d7565b92836118f9575b505050611888565b61190661190c91426117ea565b42611798565b905561191d600984019182546117f4565b9055600782019060ff825416805f14611b8d576401000276a45b60405191606083018381106001600160401b038211176116315760409081529015158352602083019384526001600160a01b039182168382019081529051633cf3645360e21b8152946024359283168084141593929084610647576004880152604435956001600160a01b038716808814159690876106475760248a015260643562ffffff81168091036106475760448a01526084358060020b8091036106475760648a015260a4356001600160a01b038116908190036106475760848a015251151560a48901525160c4880152516001600160a01b0390811660e48801526101206101048801525f61012488018190526020918891610144918391907f0000000000000000000000000000000000000000000000000000000000000000165af1958615610ddd575f96611b58575b505460ff1615611af7578460801d915f83600f0b12611ad0575b5050505f83600f0b13611a9d575b505050505b5f808080806118f1565b61064757611ac591600291611abb916001600160801b031690611fdb565b92019182546117f4565b90555f808080611a8e565b61064757611ae0611aef9261182d565b6001600160801b031690611de6565b5f8080611a80565b939291505081600f0b905f8212611b45575b505060801d905f82600f0b13611b22575b505050611a93565b611abb600291611b3b936001600160801b031690611fdb565b90555f8080611b1a565b611ae0611b519261182d565b5f80611b09565b9095506020813d602011611b85575b81611b746020938361167c565b8101031261064757519460ff611a66565b3d9150611b67565b73fffd8963efd1fc6a506488495d951d5263988d25611937565b5080600283015410611883565b6315d7892d60e21b905f908190565b60a0611bd0366004611724565b205f52600260205260405f20600181015415611c5057611c30600482015491611c2a611c1a611c136006611c0960038601548098611798565b94015480946117b9565b9442611798565b91611c2581846117ea565b6117b9565b90611798565b906064820291808304606414901517156117a557611c4d916117b9565b90565b505f90565b60a0611c62366004611724565b205f52600260205260405f20600181015480158015611d50575b611d4a57611ca2611c91600584015442611798565b926003600482015491015490611798565b90670de0b6b3a7640000820291808304670de0b6b3a764000014901517156117a557611ccd916117b9565b90611d30816040611d07858251611ce4848261167c565b6011815270195e1958dd5d1a5bdb925b9d195c9d985b607a1b6020820152612138565b611d138151918261167c565b600b81526a656c617073656454696d6560a81b6020820152612138565b808211611d415790611c4d916117ea565b611c4d91611798565b50505f90565b506004820154421015611c7c565b90816020910312610647575180151581036106475790565b60405190611d8560408361167c565b601c82527f61646472657373206f6620746f6b656e20696e2074686520686f6f6b000000006020830152565b90816020910312610647575190565b5f546001600160a01b03163303611dd357565b63118cdaa760e01b5f523360045260245ffd5b905f91604091611e246001600160801b03845192611e04868561167c565b600b84526a616d6f756e74206865686560a81b6020850152168092612138565b7f00000000000000000000000000000000000000000000000000000000000000006001600160a01b031691823b15610647578351632961046560e21b81526001600160a01b0382166004820181905291905f8160248183895af18015611fd157611fba575b508591908582611f355750505080808093855af115611f0057602083915b6004845180968193630476982d60e21b83525af1918215611ef6575050611ecb5750565b611eec9060203d602011611eef575b611ee4818361167c565b810190611db1565b50565b503d611eda565b51903d90823e3d90fd5b92503d918183925194638549db5960e01b865260048601526024850152816044850152606484013e601f801991011660640190fd5b9092919382604460209282855197889263a9059cbb60e01b84528b600485015260248401525af13d15601f3d11600185511416171692828152826020820152015215611f85575060208391611ea7565b83833d918183925194632c4b17e760e21b865260048601526024850152816044850152606484013e601f801991011660640190fd5b611fc8919296505f9061167c565b5f94905f611e89565b86513d5f823e3d90fd5b6040516370a0823160e01b8152306004820152905f906001600160a01b0316602083602481845afa928315610ddd575f93612104575b507f00000000000000000000000000000000000000000000000000000000000000006001600160a01b031693843b15610647576001600160801b0360645f92836040519889948593630b0d9c0960e01b85528860048601523060248601521660448401525af1938415610ddd576024946120ee575b50602090604051948580926370a0823160e01b82523060048301525afa9081156104e457906120ba575b611c4d9250611798565b506020823d6020116120e6575b816120d46020938361167c565b8101031261064757611c4d91516120b0565b3d91506120c7565b6120fb9192505f9061167c565b5f906020612086565b9092506020813d602011612130575b816121206020938361167c565b810103126106475751915f612011565b3d9150612113565b5f9190829161217c604051809261216860208301956309710a9d60e41b8752604060248501526064840190611557565b90604483015203601f19810183528261167c565b51906a636f6e736f6c652e6c6f675afa50565b5f9182918160405192839283378101838152039082305af1903d15612205573d916001600160401b03831161163157604051926121d6601f8201601f19166020018561167c565b83523d5f602085013e5b61220357508051156121f457602081519101fd5b6314815f4760e31b5f5260045ffd5b565b6060916121e0565b5f9190829161217c604051809261223d602083019563319af33360e01b8752604060248501526064840190611557565b6001600160a01b0391909116604483015203601f19810183528261167c56fea264697066735822122045a826b979adfd390e5e0d41bcca14c7c60bc14fc5f8240e72541f7a69e9200b64736f6c634300081a0033","linkReferences":{}},"methodIdentifiers":{"afterAddLiquidity(address,(address,address,uint24,int24,address),(int24,int24,int256,bytes32),int256,bytes)":"5a2a8100","afterDonate(address,(address,address,uint24,int24,address),uint256,uint256,bytes)":"e1b4af69","afterInitialize(address,(address,address,uint24,int24,address),uint160,int24,bytes)":"a910f80f","afterRemoveLiquidity(address,(address,address,uint24,int24,address),(int24,int24,int256,bytes32),int256,bytes)":"8db2b652","afterSwap(address,(address,address,uint24,int24,address),(bool,int256,uint160),int256,bytes)":"b47b2fb1","beforeAddLiquidity(address,(address,address,uint24,int24,address),(int24,int24,int256,bytes32),bytes)":"259982e5","beforeDonate(address,(address,address,uint24,int24,address),uint256,uint256,bytes)":"b6a8b0fa","beforeInitialize(address,(address,address,uint24,int24,address),uint160,bytes)":"3440d820","beforeRemoveLiquidity(address,(address,address,uint24,int24,address),(int24,int24,int256,bytes32),bytes)":"21d0ee70","beforeSwap(address,(address,address,uint24,int24,address),(bool,int256,uint160),bytes)":"575e24b4","buybackAmounts(bytes32)":"ef6c6482","buybackOrders(bytes32)":"c1307609","claimBoughtTokens((address,address,uint24,int24,address))":"7ec366f9","claimTokensSupply(bytes32)":"0416b7aa","daoToken()":"4914b030","daoTreasury()":"79022a9f","getBuybackOrderDetails((address,address,uint24,int24,address))":"640d85c6","getBuybackProgress((address,address,uint24,int24,address))":"5bc80306","getHookPermissions()":"c4e833ce","getTimeUntilNextExecution((address,address,uint24,int24,address))":"650351ed","initiateBuyback((address,address,uint24,int24,address),uint256,uint256,uint256,bool)":"ee6c82be","maxBuybackDuration()":"1df42f60","message()":"e21f37ce","owner()":"8da5cb5b","poolManager()":"dc4c90d3","renounceOwnership()":"715018a6","setDaoTreasury(address)":"a124df5d","setMaxBuybackDuration(uint256)":"29399ce0","transferOwnership(address)":"f2fde38b","unlockCallback(bytes)":"91dd7346","updateBuybackOrder((address,address,uint24,int24,address),uint256,uint256)":"8aec2b6f","updateMessage()":"b3cbb309"},"id":85}